:100000000C942A000C9447000C9447000C94470071
:100010000C94F9000C9447000C9447000C94470092
:100020000C9447000C9449000C9447000C94470032
:100030000C9447000C9447000C9447000C94470024
:100040000C9447000C9447000C9447000C94470014
:100050000C94470011241FBECFE5D4E0DEBFCDBF16
:1000600010E0A0E6B0E0E4EBF6E102C005900D92EE
:10007000A039B107D9F720E0A0E9B0E001C01D9296
:10008000AA3EB207E1F70E9461040C94580B0C944D
:1000900000001F920F920FB60F9211242F933F93DF
:1000A0004F935F936F937F938F939F93AF93BF9380
:1000B000EF93FF9320919B0030919C0040919D0015
:1000C00050919E0060919F007091A0008091A100CE
:1000D0009091A200ACE30E94620809F053C00E9414
:1000E00050060E945A0640E060E080E00E94CE0385
:1000F00061E080E00E94B70310929B0010929C0088
:1001000010929D0010929E0010929F001092A000ED
:100110001092A1001092A2001092920040E061E0C3
:1001200085EA90E00E947F02809190008F5F80932B
:1001300090001F928F9380E690E09F938F9389EBBE
:1001400090E09F938F930E946E0869EB70E085EAC0
:1001500090E00E949703809190000F900F900F9075
:100160000F900F900F90833098F540E060EC85EA97
:1001700090E00E947F0260E770E085EA90E00E94D4
:10018000970326C080E00E94540620919B00309186
:100190009C0040919D0050919E0060919F00709145
:1001A000A0008091A1009091A200A1E00E945608B9
:1001B00020939B0030939C0040939D0050939E00A1
:1001C00060939F007093A0008093A1009093A20081
:1001D000FF91EF91BF91AF919F918F917F916F911F
:1001E0005F914F913F912F910F900FBE0F901F90F5
:1001F00018951F920F920FB60F9211242F933F93D1
:100200004F935F936F937F938F939F93AF93BF931E
:10021000EF93FF93209193003091940040919500CB
:10022000509196006091970070919800809199008C
:1002300090919A00ACE30E94620809F04FC00E94BE
:10024000DB060E94E50640E060E081E00E94CE030C
:1002500061E081E00E94B703109293001092940035
:1002600010929500109296001092970010929800AC
:100270001092990010929A001092910040E061E073
:1002800085EA90E00E947F028091900081508093E7
:1002900090001F928F9380E690E09F938F9389EB5D
:1002A00090E09F938F930E946E0869EB70E085EA5F
:1002B00090E00E94970340E060EC85EA90E00E94A5
:1002C0007F0260E770E085EA90E00E9497030F905C
:1002D0000F900F900F900F900F9026C080E00E941B
:1002E000DF06209193003091940040919500509149
:1002F000960060919700709198008091990090917C
:100300009A00A1E00E945608209393003093940035
:1003100040939500509396006093970070939800D7
:100320008093990090939A00FF91EF91BF91AF91C4
:100330009F918F917F916F915F914F913F912F91FD
:100340000F900FBE0F901F9018958F92AF92CF9283
:10035000EF920F9340E060E074E080E00E94D305EC
:1003600040E060E074E080E00E945E0660E080E0D3
:100370000E94C80360E081E00E94C80340E060E0A2
:1003800080E00E94CE0340E060E081E00E94CE0366
:1003900063E082E00E94BD0363E083E00E94BD034E
:1003A00061E080E00E94AB0361E081E00E94AB036A
:1003B00082E08F9397E09F938F9396E09F938F9324
:1003C00095E09F938F9394E09F938F9393E09F93F7
:1003D0008F938F936894882481F8AA24A3946894B7
:1003E000CC24C1F8E12C03E021E043E060E085EAA1
:1003F00090E00E9411030E94CF0580E00E94540605
:1004000080E00E94DF06809190001F928F9380E62B
:1004100090E09F938F9389EB90E09F938F930E943E
:100420006E0869EB70E085EA90E00E94970340E077
:1004300060EC85EA90E00E947F0260E770E085EA68
:1004400090E00E9497038DB79EB742960FB6F8943E
:100450009EBF0FBE8DBF0F91EF90CF90AF908F904A
:10046000089544EA50E063E082E00E94C30343EA57
:1004700050E063E083E00E94C3038091A3008130D9
:10048000A9F480919100811111C046EA60E081E0F9
:100490000E94CE0361E081E00E94B1030E94E10668
:1004A0000E94D40681E0809391000895809190008D
:1004B000833069F440E060EC85EA90E00E947F02BE
:1004C00061E870E085EA90E00E94970308958091CA
:1004D000A400813099F48091920081110FC046EA06
:1004E00060E00E94CE0361E080E00E94B1030E94C0
:1004F00056060E94490681E08093920008950F936A
:100500001F93CF93DF93EC01162F042F40E06B81F4
:100510008A810E94E004011106C040E0698188815F
:100520000E94E00407C0013029F441E0698188811C
:100530000E94E004412F41706D818C810E94E00493
:10054000412F427050E0559547956F818E810E94F2
:10055000E004412F447050E05595479555954795D7
:10056000698588850E94E004412F487050E05595C8
:10057000479555954795559547956B858A850E9472
:10058000E004412F407150E05595479555954795AA
:1005900055954795559547956D858C850E94E00446
:1005A000412F407250E05595479555954795559583
:1005B000479555954795559547956F858E850E942A
:1005C000E004412F407450E0042E452F000C441FDE
:1005D000550B000C441F551F698988890E94E0044F
:1005E000412F441F4427441F6B898A890E94E004DD
:1005F00041E06B818A810E94E00482E08A95F1F7F4
:1006000000C040E06B818A810E94E0048FE99FE096
:100610000197F1F700C00000DF91CF911F910F917A
:1006200008956F927F928F92AF92CF92EF920F9335
:10063000CF93DF93CDB7DEB73C018E2DF301E4827B
:10064000A6829C8590879E859287988994879A89AF
:1006500096879C89908B9E89928B60832283C5822A
:1006600087829D8591879F859387998995879B89A7
:1006700097879D89918B9F89938B4183038341E069
:100680006C2D0E94660441E0F301678186810E941F
:10069000660441E0F301618580850E94660441E0C3
:1006A000F301638582850E94660441E0F30165855C
:1006B00084850E94660441E0F301678586850E9477
:1006C000660441E0F301618980890E94660441E08B
:1006D000F301638982890E94660441E0F30161812C
:1006E00080810E94660441E0F301638182810E945F
:1006F000660440E066E0C3010E947F0240E06CE0D7
:10070000C3010E947F0240E068E3C3010E947F02B0
:1007100040E061E0C3010E947F02DF91CF910F9121
:10072000EF90CF90AF908F907F906F9008950F9340
:100730001F93CF93DF938C01EB0105C0219641E01D
:10074000C8010E947F0268816111F8CFDF91CF91CB
:100750001F910F91089541E00E946604811181E08C
:10076000089541E00E94E004811182E0089540E094
:100770000E94E004811183E0089540E00E94660435
:10078000811181E008950E945A05811182E0089547
:1007900041E00E946604811181E00895CF93DF93C8
:1007A000C82FD62F4423D1F12CF4463A69F0433DAB
:1007B00001F183C04D3209F446C04A3509F458C0EE
:1007C0004A3009F07AC069C041E00E94E00487E243
:1007D00097E00197F1F700C040E06D2F8C2F0E9449
:1007E000E00487E395E90197F1F700C0000080E09D
:1007F00065C041E00E94E00488EB99E00197F1F7C1
:10080000000040E06D2F8C2F0E94E00485ED92E9FE
:100810000197F1F700C0000080E050C041E00E9465
:10082000E0048CEA9BE00197F1F700C040E06D2FF7
:100830008C2F0E94E00481EE90E90197F1F700C04F
:10084000000080E03BC041E00E94E00480EA9DE0BF
:100850000197F1F700C040E06D2F8C2F0E94E0045B
:100860008DEE9EE80197F1F700C0000080E026C001
:1008700041E00E94E00484E99FE00197F1F700C0A5
:1008800040E06D2F8C2F0E94E00489EF9CE80197D7
:10089000F1F700C0000080E011C041E00E94E004D8
:1008A00040E06D2F8C2F0E94E00481EE90E90197CB
:1008B000F1F700C0000080E001C082E0DF91CF913D
:1008C00008950E94A5010E943102FDCF883008F0F2
:1008D0006FC0643008F06EC0423008F06DC0613007
:1008E000F9F030F06230A1F1633009F449C066C01C
:1008F0005AB361E070E0082E02C0660F771F0A94B9
:10090000E2F7242F30E0F90102C0EE0FFF1F8A95B5
:10091000E2F7CF0160956523862B8ABB80E00895BE
:1009200057B361E070E0082E02C0660F771F0A948B
:10093000E2F7242F30E0F90102C0EE0FFF1F8A9585
:10094000E2F7CF0160956523862B87BB80E0089591
:1009500054B361E070E0082E02C0660F771F0A945E
:10096000E2F7242F30E0F90102C0EE0FFF1F8A9555
:10097000E2F7CF0160956523862B84BB80E0089564
:1009800051B361E070E0082E02C0660F771F0A9431
:10099000E2F7242F30E0F90102C0EE0FFF1F8A9525
:1009A000E2F7CF0160956523862B81BB80E0089537
:1009B00081E0089582E0089583E0089580E008953D
:1009C000883008F06FC0643008F06EC0423008F024
:1009D0006DC06130F9F030F06230A1F1633009F49C
:1009E00049C066C05BB361E070E0082E02C0660FCC
:1009F000771F0A94E2F7242F30E0F90102C0EE0FCE
:100A0000FF1F8A95E2F7CF0160956523862B8BBB8C
:100A100080E0089558B361E070E0082E02C0660FD0
:100A2000771F0A94E2F7242F30E0F90102C0EE0F9D
:100A3000FF1F8A95E2F7CF0160956523862B88BB5F
:100A400080E0089555B361E070E0082E02C0660FA3
:100A5000771F0A94E2F7242F30E0F90102C0EE0F6D
:100A6000FF1F8A95E2F7CF0160956523862B85BB32
:100A700080E0089552B361E070E0082E02C0660F76
:100A8000771F0A94E2F7242F30E0F90102C0EE0F3D
:100A9000FF1F8A95E2F7CF0160956523862B82BB05
:100AA00080E0089581E0089582E0089584E008954B
:100AB00080E00895883008F06CC0643008F06BC0A6
:100AC0006130F9F030F06230A1F1633009F449C0CF
:100AD00064C099B321E030E0B901082E02C0660F6E
:100AE000771F0A94E2F7292F30E026233723B90134
:100AF00002C0759567958A95E2F7FA01608380E0F8
:100B0000089596B321E030E0B901082E02C0660FC7
:100B1000771F0A94E2F7292F30E026233723B90103
:100B200002C0759567958A95E2F7FA01608380E0C7
:100B3000089593B321E030E0B901082E02C0660F9A
:100B4000771F0A94E2F7292F30E026233723B901D3
:100B500002C0759567958A95E2F7FA01608380E097
:100B6000089590B321E030E0B901082E02C0660F6D
:100B7000771F0A94E2F7292F30E026233723B901A3
:100B800002C0759567958A95E2F7FA01608380E067
:100B9000089581E0089582E0089580E008958FB778
:100BA00080688FBF0895CF93DF93D82FC42F603410
:100BB000710519F138F46130710561F06830710523
:100BC00091F038C0611581E0780709F16115744032
:100BD00041F130C081E090E09093D4008093D30045
:100BE0008093D20027C088E090E09093D400809357
:100BF000D30082E08093D2001DC080E490E0909307
:100C0000D4008093D30083E08093D20013C080E0AF
:100C100091E09093D4008093D30084E08093D2003D
:100C200009C080E094E09093D4008093D30085E0E5
:100C30008093D2006091D3007091D40080E090E066
:100C40000E945B0720E034E244EF5AE40E94E90688
:100C50006093CE007093CF008093D0009093D1002A
:100C600020E030E040E853E40E94E9076093CA00C6
:100C70007093CB008093CC009093CD0083B7877B9B
:100C80008D2B83BF43B74F7C4C2B43BFDF91CF915C
:100C9000089583B7887F9091D200892B83BF0895F0
:100CA00083B7887F83BF089582BF089589B7816025
:100CB00089BF089589B78E7F89BF0895CF93DF9349
:100CC000D82FC42F6034710519F138F461307105E3
:100CD00061F06830710591F038C0611581E07807E6
:100CE00009F16115744041F130C081E090E09093CA
:100CF000DF008093DE008093E80027C088E090E06A
:100D00009093DF008093DE0082E08093E8001DC0B6
:100D100080E490E09093DF008093DE0084E0809395
:100D2000E80013C080E091E09093DF008093DE0044
:100D300086E08093E80009C080E094E09093DF00B3
:100D40008093DE0087E08093E8006091DE00709180
:100D5000DF0080E090E00E945B0720E034E244EF97
:100D60005AE40E94E9066093CE007093CF0080930E
:100D7000D0009093D10020E030E040E853E40E949E
:100D8000E9076093CA007093CB008093CC009093E6
:100D9000CD0085B5877B8D2B85BD45B54F7C4C2B14
:100DA00045BDDF91CF91089585B5887F9091E8008A
:100DB000892B85BD089585B5887F85BD089584BD3F
:100DC000089589B7806489BF089589B78F7B89BFEB
:100DD00008950E94FD060C94AF070E94A80758F0E2
:100DE0000E94A10740F029F45F3F29F00C94980776
:100DF00051110C94E3070C949E070E94C00768F3FE
:100E00009923B1F3552391F3951B550BBB27AA27C3
:100E100062177307840738F09F5F5F4F220F331FFD
:100E2000441FAA1FA9F335D00E2E3AF0E0E832D0C5
:100E300091505040E695001CCAF72BD0FE2F29D0C8
:100E4000660F771F881FBB1F261737074807AB079A
:100E5000B0E809F0BB0B802DBF01FF2793585F4F0F
:100E60003AF09E3F510578F00C9498070C94E307F4
:100E70005F3FE4F3983ED4F3869577956795B795F1
:100E8000F7959F5FC9F7880F911D9695879597F9FC
:100E90000895E1E0660F771F881FBB1F6217730775
:100EA0008407BA0720F0621B730B840BBA0BEE1F8A
:100EB00088F7E0950895E89409C097FB3EF4909573
:100EC0008095709561957F4F8F4F9F4F9923A9F023
:100ED000F92F96E9BB279395F695879577956795B2
:100EE000B795F111F8CFFAF4BB0F11F460FF1BC0F6
:100EF0006F5F7F4F8F4F9F4F16C0882311F096E989
:100F000011C0772321F09EE8872F762F05C0662336
:100F100071F096E8862F70E060E02AF09A95660FEF
:100F2000771F881FDAF7880F9695879597F90895A8
:100F300097F99F6780E870E060E008959FEF80EC8C
:100F4000089500240A94161617061806090608952F
:100F500000240A9412161306140605060895092E95
:100F60000394000C11F4882352F0BB0F40F4BF2B04
:100F700011F460FF04C06F5F7F4F8F4F9F4F089544
:100F800057FD9058440F551F59F05F3F71F047953A
:100F9000880F97FB991F61F09F3F79F0879508951F
:100FA000121613061406551FF2CF4695F1DF08C03E
:100FB000161617061806991FF1CF8695710561055B
:100FC00008940895E894BB2766277727CB0197F903
:100FD00008950E94FC070C94AF070E94A10738F007
:100FE0000E94A80720F0952311F00C9498070C9408
:100FF0009E0711240C94E3070E94C00770F3959F8D
:10100000C1F3950F50E0551F629FF001729FBB27FF
:10101000F00DB11D639FAA27F00DB11DAA1F649F9B
:101020006627B00DA11D661F829F2227B00DA11D4E
:10103000621F739FB00DA11D621F839FA00D611DD4
:10104000221F749F3327A00D611D231F849F600DF5
:10105000211D822F762F6A2F11249F5750409AF01E
:10106000F1F088234AF0EE0FFF1FBB1F661F771FAA
:10107000881F91505040A9F79E3F510580F00C9475
:1010800098070C94E3075F3FE4F3983ED4F386950A
:1010900077956795B795F795E7959F5FC1F7FE2B15
:1010A000880F911D9695879597F908950024A7FDBF
:1010B00000942A0F301D401D501D601D701D801DA5
:1010C000901D08950024A7FD00942A1730054005BF
:1010D000500560057005800590050895AEE0B0E00C
:1010E000E4E7F8E00C942F0B0D891E8986E08C83D1
:1010F0001A8309838FEF9FE79E838D83AE01475E3E
:101100005F4F6F89788DCE0101960E949008EF8124
:10111000F885E00FF11F10822E96E4E00C944B0B43
:10112000ABE0B0E0E6E9F8E00C94210B6C017B0148
:101130008A01FC0117821682838181FFCCC1CE0116
:1011400001963C01F6019381F70193FD859193FF90
:1011500081917F01882309F4BAC1853239F493FD66
:10116000859193FF81917F01853229F4B60190E04A
:101170000E94870AE7CF912C212C312CFFE1F31537
:10118000D8F08B3279F038F4803279F08332A1F4E0
:10119000232D20611DC08D3261F0803369F4232D31
:1011A000216016C0832D8260382EE32DE4603E2E30
:1011B0002AC0F32DF8601DC037FC2DC020ED280F8C
:1011C0002A3040F08E32B9F436FC81C1232D2064E0
:1011D000322E19C036FE06C08AE0989E200D1124DA
:1011E000922E11C0EAE02E9E200D1124222EF32D06
:1011F000F0623F2E08C08C3621F4832D8068382E93
:1012000002C0883641F4F70193FD859193FF8191E7
:101210007F018111B3CF982F9F7D9554933028F48F
:101220000C5F1F4F9FE399830DC0833631F08337E6
:1012300071F0833509F059C021C0F801808189839C
:101240000E5F1F4F88248394912C530113C02801F3
:10125000F2E04F0E511CF801A080B18036FE03C0B1
:10126000692D70E002C06FEF7FEFC5010E947C0A1C
:101270004C018201F32DFF773F2E16C0280122E09A
:10128000420E511CF801A080B18036FE03C0692DCA
:1012900070E002C06FEF7FEFC5010E94710A4C0140
:1012A000F32DF0683F2E820133FC1BC0822D90E0AD
:1012B00088169906B0F4B60180E290E00E94870A91
:1012C0002A94F4CFF50137FC859137FE81915F01B7
:1012D000B60190E00E94870A21102A9421E0821A28
:1012E00091088114910471F7E8C0843611F08936B1
:1012F00041F5F80137FE07C06081718182819381D9
:101300000C5F1F4F08C060817181072E000C880B95
:10131000990B0E5F1F4FF32DFF763F2E97FF09C0ED
:1013200090958095709561957F4F8F4F9F4FF06896
:101330003F2E2AE030E0A3010E94C30A882E8618BF
:1013400045C0853731F4232D2F7EB22E2AE030E0C0
:1013500025C0932D997FB92E8F36C1F018F48835AA
:1013600079F0B5C0803719F0883721F0B0C0E92F87
:10137000E061BE2EB4FE0DC0FB2DF460BF2E09C08F
:1013800034FE0AC0292F2660B22E06C028E030E0C5
:1013900005C020E130E002C020E132E0F801B7FEF4
:1013A00007C060817181828193810C5F1F4F06C0ED
:1013B0006081718180E090E00E5F1F4FA3010E9469
:1013C000C30A882E8618FB2DFF773F2E36FE0DC0F0
:1013D000232D2E7FA22E891458F434FE0BC032FC2C
:1013E00009C0832D8E7EA82E05C0B82CA32C03C067
:1013F000B82C01C0B92CA4FE0FC0FE01E80DF11DF0
:101400008081803321F49A2D997EA92E09C0A2FEF5
:1014100006C0B394B39404C08A2D867809F0B394BF
:10142000A3FC11C0A0FE06C0B21488F4280C922CB4
:101430009B180EC0B21460F4B60180E290E00E94E6
:10144000870AB394F7CFB21418F42B1802C0982C63
:10145000212CA4FE10C0B60180E390E00E94870A10
:10146000A2FE17C0A1FC03C088E790E002C088E597
:1014700090E0B6010CC08A2D867859F0A1FE02C01A
:101480008BE201C080E2A7FC8DE2B60190E00E94F1
:10149000870A891438F4B60180E390E00E94870A35
:1014A0009A94F7CF8A94F301E80DF11D8081B6017B
:1014B00090E00E94870A8110F5CF222009F442CEE5
:1014C000B60180E290E00E94870A2A94F6CFF601E6
:1014D0008681978102C08FEF9FEF2B96E2E10C94FB
:1014E0003D0BFC010590615070400110D8F78095CC
:1014F00090958E0F9F1F0895FC01615070400190E0
:101500000110D8F7809590958E0F9F1F08950F9327
:101510001F93CF93DF93FB01238121FD03C08FEF46
:101520009FEF2CC022FF16C0468157812481358150
:101530004217530744F4A081B1819D012F5F3F4FB3
:10154000318320838C93268137812F5F3F4F3783F0
:10155000268314C08B01EC01FB010084F185E02D92
:101560000995892BE1F6D80116968D919C911797D4
:10157000019617969C938E931697CE01DF91CF918B
:101580001F910F910895FA01AA27283051F12031B7
:1015900081F1E8946F936E7F6E5F7F4F8F4F9F4F07
:1015A000AF4FB1E03ED0B4E03CD0670F781F891F49
:1015B0009A1FA11D680F791F8A1F911DA11D6A0F17
:1015C000711D811D911DA11D20D009F468943F91CA
:1015D0002AE0269F11243019305D3193DEF6CF01C9
:1015E0000895462F4770405D4193B3E00FD0C9F78F
:1015F000F6CF462F4F70405D4A3318F0495D31FDFC
:101600004052419302D0A9F7EACFB4E0A69597954E
:10161000879577956795BA95C9F700976105710524
:1016200008959B01AC010A2E06945795479537956E
:101630002795BA95C9F7620F731F841F951FA01DC8
:1016400008952F923F924F925F926F927F928F9266
:101650009F92AF92BF92CF92DF92EF92FF920F9341
:101660001F93CF93DF93CDB7DEB7CA1BDB0B0FB64B
:10167000F894DEBF0FBECDBF09942A883988488808
:101680005F846E847D848C849B84AA84B984C8849E
:10169000DF80EE80FD800C811B81AA81B981CE0F95
:1016A000D11D0FB6F894DEBF0FBECDBFED0108957A
:0416B000F894FFCFDC
:1016B40043617273206E756D6265723A2025640011
:1016C400456E74657220697320616C6C6F77656414
:1016D4000047617267652069732046756C6C000071
:00000001FF
